{
  "_format": "hh-sol-artifact-1",
  "contractName": "Marketplace",
  "sourceName": "contracts/Marketplace.sol",
  "abi": [
    {
      "inputs": [
        {
          "internalType": "address",
          "name": "_leo",
          "type": "address"
        },
        {
          "internalType": "address",
          "name": "_usdt",
          "type": "address"
        },
        {
          "internalType": "address",
          "name": "_leonNft",
          "type": "address"
        }
      ],
      "stateMutability": "nonpayable",
      "type": "constructor"
    },
    {
      "inputs": [
        {
          "internalType": "uint256",
          "name": "_id",
          "type": "uint256"
        },
        {
          "internalType": "address",
          "name": "_with",
          "type": "address"
        }
      ],
      "name": "buyNft",
      "outputs": [],
      "stateMutability": "nonpayable",
      "type": "function"
    },
    {
      "inputs": [
        {
          "internalType": "address",
          "name": "_from",
          "type": "address"
        },
        {
          "internalType": "address",
          "name": "_to",
          "type": "address"
        },
        {
          "internalType": "uint256",
          "name": "_amount",
          "type": "uint256"
        }
      ],
      "name": "exchange",
      "outputs": [],
      "stateMutability": "nonpayable",
      "type": "function"
    },
    {
      "inputs": [],
      "name": "leoDecimals",
      "outputs": [
        {
          "internalType": "uint8",
          "name": "",
          "type": "uint8"
        }
      ],
      "stateMutability": "view",
      "type": "function"
    },
    {
      "inputs": [
        {
          "internalType": "address",
          "name": "",
          "type": "address"
        },
        {
          "internalType": "address",
          "name": "",
          "type": "address"
        },
        {
          "internalType": "uint256[]",
          "name": "",
          "type": "uint256[]"
        },
        {
          "internalType": "uint256[]",
          "name": "",
          "type": "uint256[]"
        },
        {
          "internalType": "bytes",
          "name": "",
          "type": "bytes"
        }
      ],
      "name": "onERC1155BatchReceived",
      "outputs": [
        {
          "internalType": "bytes4",
          "name": "",
          "type": "bytes4"
        }
      ],
      "stateMutability": "nonpayable",
      "type": "function"
    },
    {
      "inputs": [
        {
          "internalType": "address",
          "name": "",
          "type": "address"
        },
        {
          "internalType": "address",
          "name": "",
          "type": "address"
        },
        {
          "internalType": "uint256",
          "name": "",
          "type": "uint256"
        },
        {
          "internalType": "uint256",
          "name": "",
          "type": "uint256"
        },
        {
          "internalType": "bytes",
          "name": "",
          "type": "bytes"
        }
      ],
      "name": "onERC1155Received",
      "outputs": [
        {
          "internalType": "bytes4",
          "name": "",
          "type": "bytes4"
        }
      ],
      "stateMutability": "nonpayable",
      "type": "function"
    },
    {
      "inputs": [
        {
          "internalType": "uint256",
          "name": "_id",
          "type": "uint256"
        },
        {
          "internalType": "address",
          "name": "_with",
          "type": "address"
        }
      ],
      "name": "sellNft",
      "outputs": [],
      "stateMutability": "nonpayable",
      "type": "function"
    },
    {
      "inputs": [
        {
          "internalType": "bytes4",
          "name": "interfaceId",
          "type": "bytes4"
        }
      ],
      "name": "supportsInterface",
      "outputs": [
        {
          "internalType": "bool",
          "name": "",
          "type": "bool"
        }
      ],
      "stateMutability": "view",
      "type": "function"
    },
    {
      "inputs": [],
      "name": "usdtDecimals",
      "outputs": [
        {
          "internalType": "uint8",
          "name": "",
          "type": "uint8"
        }
      ],
      "stateMutability": "view",
      "type": "function"
    }
  ],
  "bytecode": "0x60806040523480156200001157600080fd5b5060405162001bb138038062001bb1833981810160405281019062000037919062000268565b826000806101000a81548173ffffffffffffffffffffffffffffffffffffffff021916908373ffffffffffffffffffffffffffffffffffffffff16021790555081600160006101000a81548173ffffffffffffffffffffffffffffffffffffffff021916908373ffffffffffffffffffffffffffffffffffffffff16021790555080600260006101000a81548173ffffffffffffffffffffffffffffffffffffffff021916908373ffffffffffffffffffffffffffffffffffffffff1602179055508273ffffffffffffffffffffffffffffffffffffffff1663313ce5676040518163ffffffff1660e01b815260040160206040518083038186803b1580156200014057600080fd5b505afa15801562000155573d6000803e3d6000fd5b505050506040513d601f19601f820116820180604052508101906200017b9190620002be565b600260146101000a81548160ff021916908360ff1602179055508173ffffffffffffffffffffffffffffffffffffffff1663313ce5676040518163ffffffff1660e01b815260040160206040518083038186803b158015620001dc57600080fd5b505afa158015620001f1573d6000803e3d6000fd5b505050506040513d601f19601f82011682018060405250810190620002179190620002be565b600260156101000a81548160ff021916908360ff1602179055505050506200035f565b6000815190506200024b816200032b565b92915050565b600081519050620002628162000345565b92915050565b6000806000606084860312156200027e57600080fd5b60006200028e868287016200023a565b9350506020620002a1868287016200023a565b9250506040620002b4868287016200023a565b9150509250925092565b600060208284031215620002d157600080fd5b6000620002e18482850162000251565b91505092915050565b6000620002f782620002fe565b9050919050565b600073ffffffffffffffffffffffffffffffffffffffff82169050919050565b600060ff82169050919050565b6200033681620002ea565b81146200034257600080fd5b50565b62000350816200031e565b81146200035c57600080fd5b50565b611842806200036f6000396000f3fe608060405234801561001057600080fd5b50600436106100885760003560e01c8063969e37561161005b578063969e375614610115578063bc197c8114610131578063bc3ad14514610161578063f23a6e611461017d57610088565b806301ffc9a71461008d5780630b4cb30a146100bd5780630f876dc6146100db57806382543b32146100f7575b600080fd5b6100a760048036038101906100a2919061101c565b6101ad565b6040516100b49190611263565b60405180910390f35b6100c5610227565b6040516100d291906112f9565b60405180910390f35b6100f560048036038101906100f0919061106e565b61023a565b005b6100ff610456565b60405161010c91906112f9565b60405180910390f35b61012f600480360381019061012a9190610f15565b610469565b005b61014b60048036038101906101469190610e56565b61089b565b604051610158919061127e565b60405180910390f35b61017b6004803603810190610176919061106e565b6108b0565b005b61019760048036038101906101929190610f64565b610ace565b6040516101a4919061127e565b60405180910390f35b60007f4e2312e0000000000000000000000000000000000000000000000000000000007bffffffffffffffffffffffffffffffffffffffffffffffffffffffff1916827bffffffffffffffffffffffffffffffffffffffffffffffffffffffff19161480610220575061021f82610ae3565b5b9050919050565b600260149054906101000a900460ff1681565b6000600260009054906101000a900473ffffffffffffffffffffffffffffffffffffffff1673ffffffffffffffffffffffffffffffffffffffff1662fdd58e33856040518363ffffffff1660e01b815260040161029892919061123a565b60206040518083038186803b1580156102b057600080fd5b505afa1580156102c4573d6000803e3d6000fd5b505050506040513d601f19601f820116820180604052508101906102e89190611045565b11610328576040517f08c379a000000000000000000000000000000000000000000000000000000000815260040161031f90611299565b60405180910390fd5b600260009054906101000a900473ffffffffffffffffffffffffffffffffffffffff1673ffffffffffffffffffffffffffffffffffffffff1663f242432a33308560016040518563ffffffff1660e01b815260040161038a94939291906111e2565b600060405180830381600087803b1580156103a457600080fd5b505af11580156103b8573d6000803e3d6000fd5b505050508073ffffffffffffffffffffffffffffffffffffffff1663a9059cbb336103e284610b4d565b6040518363ffffffff1660e01b81526004016103ff92919061123a565b602060405180830381600087803b15801561041957600080fd5b505af115801561042d573d6000803e3d6000fd5b505050506040513d601f19601f820116820180604052508101906104519190610ff3565b505050565b600260159054906101000a900460ff1681565b8260008054906101000a900473ffffffffffffffffffffffffffffffffffffffff1673ffffffffffffffffffffffffffffffffffffffff168173ffffffffffffffffffffffffffffffffffffffff1614806105115750600160009054906101000a900473ffffffffffffffffffffffffffffffffffffffff1673ffffffffffffffffffffffffffffffffffffffff168173ffffffffffffffffffffffffffffffffffffffff16145b610550576040517f08c379a0000000000000000000000000000000000000000000000000000000008152600401610547906112d9565b60405180910390fd5b8260008054906101000a900473ffffffffffffffffffffffffffffffffffffffff1673ffffffffffffffffffffffffffffffffffffffff168173ffffffffffffffffffffffffffffffffffffffff1614806105f85750600160009054906101000a900473ffffffffffffffffffffffffffffffffffffffff1673ffffffffffffffffffffffffffffffffffffffff168173ffffffffffffffffffffffffffffffffffffffff16145b610637576040517f08c379a000000000000000000000000000000000000000000000000000000000815260040161062e906112d9565b60405180910390fd5b60008060009054906101000a900473ffffffffffffffffffffffffffffffffffffffff1673ffffffffffffffffffffffffffffffffffffffff168673ffffffffffffffffffffffffffffffffffffffff16141561069e5761069784610c13565b90506106aa565b6106a784610c81565b90505b808573ffffffffffffffffffffffffffffffffffffffff166370a08231306040518263ffffffff1660e01b81526004016106e49190611190565b60206040518083038186803b1580156106fc57600080fd5b505afa158015610710573d6000803e3d6000fd5b505050506040513d601f19601f820116820180604052508101906107349190611045565b1015610775576040517f08c379a000000000000000000000000000000000000000000000000000000000815260040161076c906112b9565b60405180910390fd5b8473ffffffffffffffffffffffffffffffffffffffff1663a9059cbb33836040518363ffffffff1660e01b81526004016107b092919061123a565b602060405180830381600087803b1580156107ca57600080fd5b505af11580156107de573d6000803e3d6000fd5b505050506040513d601f19601f820116820180604052508101906108029190610ff3565b508573ffffffffffffffffffffffffffffffffffffffff166323b872dd3330876040518463ffffffff1660e01b8152600401610840939291906111ab565b602060405180830381600087803b15801561085a57600080fd5b505af115801561086e573d6000803e3d6000fd5b505050506040513d601f19601f820116820180604052508101906108929190610ff3565b50505050505050565b600063bc197c8160e01b905095945050505050565b6000600260009054906101000a900473ffffffffffffffffffffffffffffffffffffffff1673ffffffffffffffffffffffffffffffffffffffff1662fdd58e30856040518363ffffffff1660e01b815260040161090e92919061123a565b60206040518083038186803b15801561092657600080fd5b505afa15801561093a573d6000803e3d6000fd5b505050506040513d601f19601f8201168201806040525081019061095e9190611045565b1161099e576040517f08c379a000000000000000000000000000000000000000000000000000000000815260040161099590611299565b60405180910390fd5b600260009054906101000a900473ffffffffffffffffffffffffffffffffffffffff1673ffffffffffffffffffffffffffffffffffffffff1663f242432a30338560016040518563ffffffff1660e01b8152600401610a0094939291906111e2565b600060405180830381600087803b158015610a1a57600080fd5b505af1158015610a2e573d6000803e3d6000fd5b505050508073ffffffffffffffffffffffffffffffffffffffff166323b872dd3330610a5985610b4d565b6040518463ffffffff1660e01b8152600401610a77939291906111ab565b602060405180830381600087803b158015610a9157600080fd5b505af1158015610aa5573d6000803e3d6000fd5b505050506040513d601f19601f82011682018060405250810190610ac99190610ff3565b505050565b600063f23a6e6160e01b905095945050505050565b60007f01ffc9a7000000000000000000000000000000000000000000000000000000007bffffffffffffffffffffffffffffffffffffffffffffffffffffffff1916827bffffffffffffffffffffffffffffffffffffffffffffffffffffffff1916149050919050565b60008060008054906101000a900473ffffffffffffffffffffffffffffffffffffffff1673ffffffffffffffffffffffffffffffffffffffff168373ffffffffffffffffffffffffffffffffffffffff161415610bd357600260149054906101000a900460ff16600a610bc0919061143c565b60c8610bcc919061155a565b9050610c0a565b600a600260159054906101000a900460ff16600a610bf1919061143c565b600f610bfd919061155a565b610c0791906113b8565b90505b80915050919050565b600060036064600260149054906101000a900460ff16600a610c35919061143c565b600260159054906101000a900460ff16600a610c51919061143c565b85610c5c919061155a565b610c6691906113b8565b610c7091906113b8565b610c7a919061155a565b9050919050565b60006003600260159054906101000a900460ff16600a610ca1919061143c565b600260149054906101000a900460ff16600a610cbd919061143c565b606485610cca919061155a565b610cd4919061155a565b610cde91906113b8565b610ce891906113b8565b9050919050565b6000610d02610cfd84611339565b611314565b90508083825260208201905082856020860282011115610d2157600080fd5b60005b85811015610d515781610d378882610e2c565b845260208401935060208301925050600181019050610d24565b5050509392505050565b6000610d6e610d6984611365565b611314565b905082815260208101848484011115610d8657600080fd5b610d91848285611647565b509392505050565b600081359050610da8816117b0565b92915050565b600082601f830112610dbf57600080fd5b8135610dcf848260208601610cef565b91505092915050565b600081519050610de7816117c7565b92915050565b600081359050610dfc816117de565b92915050565b600082601f830112610e1357600080fd5b8135610e23848260208601610d5b565b91505092915050565b600081359050610e3b816117f5565b92915050565b600081519050610e50816117f5565b92915050565b600080600080600060a08688031215610e6e57600080fd5b6000610e7c88828901610d99565b9550506020610e8d88828901610d99565b945050604086013567ffffffffffffffff811115610eaa57600080fd5b610eb688828901610dae565b935050606086013567ffffffffffffffff811115610ed357600080fd5b610edf88828901610dae565b925050608086013567ffffffffffffffff811115610efc57600080fd5b610f0888828901610e02565b9150509295509295909350565b600080600060608486031215610f2a57600080fd5b6000610f3886828701610d99565b9350506020610f4986828701610d99565b9250506040610f5a86828701610e2c565b9150509250925092565b600080600080600060a08688031215610f7c57600080fd5b6000610f8a88828901610d99565b9550506020610f9b88828901610d99565b9450506040610fac88828901610e2c565b9350506060610fbd88828901610e2c565b925050608086013567ffffffffffffffff811115610fda57600080fd5b610fe688828901610e02565b9150509295509295909350565b60006020828403121561100557600080fd5b600061101384828501610dd8565b91505092915050565b60006020828403121561102e57600080fd5b600061103c84828501610ded565b91505092915050565b60006020828403121561105757600080fd5b600061106584828501610e41565b91505092915050565b6000806040838503121561108157600080fd5b600061108f85828601610e2c565b92505060206110a085828601610d99565b9150509250929050565b6110b3816115b4565b82525050565b6110c2816115c6565b82525050565b6110d1816115d2565b82525050565b6110e081611635565b82525050565b60006110f3600083611396565b91506110fe82611732565b600082019050919050565b60006111166013836113a7565b915061112182611735565b602082019050919050565b60006111396011836113a7565b91506111448261175e565b602082019050919050565b600061115c600c836113a7565b915061116782611787565b602082019050919050565b61117b8161161e565b82525050565b61118a81611628565b82525050565b60006020820190506111a560008301846110aa565b92915050565b60006060820190506111c060008301866110aa565b6111cd60208301856110aa565b6111da6040830184611172565b949350505050565b600060a0820190506111f760008301876110aa565b61120460208301866110aa565b6112116040830185611172565b61121e60608301846110d7565b818103608083015261122f816110e6565b905095945050505050565b600060408201905061124f60008301856110aa565b61125c6020830184611172565b9392505050565b600060208201905061127860008301846110b9565b92915050565b600060208201905061129360008301846110c8565b92915050565b600060208201905081810360008301526112b281611109565b9050919050565b600060208201905081810360008301526112d28161112c565b9050919050565b600060208201905081810360008301526112f28161114f565b9050919050565b600060208201905061130e6000830184611181565b92915050565b600061131e61132f565b905061132a8282611656565b919050565b6000604051905090565b600067ffffffffffffffff821115611354576113536116e5565b5b602082029050602081019050919050565b600067ffffffffffffffff8211156113805761137f6116e5565b5b61138982611714565b9050602081019050919050565b600082825260208201905092915050565b600082825260208201905092915050565b60006113c38261161e565b91506113ce8361161e565b9250826113de576113dd6116b6565b5b828204905092915050565b6000808291508390505b60018511156114335780860481111561140f5761140e611687565b5b600185161561141e5780820291505b808102905061142c85611725565b94506113f3565b94509492505050565b60006114478261161e565b915061145283611628565b925061147f7fffffffffffffffffffffffffffffffffffffffffffffffffffffffffffffffff8484611487565b905092915050565b6000826114975760019050611553565b816114a55760009050611553565b81600181146114bb57600281146114c5576114f4565b6001915050611553565b60ff8411156114d7576114d6611687565b5b8360020a9150848211156114ee576114ed611687565b5b50611553565b5060208310610133831016604e8410600b84101617156115295782820a90508381111561152457611523611687565b5b611553565b61153684848460016113e9565b9250905081840481111561154d5761154c611687565b5b81810290505b9392505050565b60006115658261161e565b91506115708361161e565b9250817fffffffffffffffffffffffffffffffffffffffffffffffffffffffffffffffff04831182151516156115a9576115a8611687565b5b828202905092915050565b60006115bf826115fe565b9050919050565b60008115159050919050565b60007fffffffff0000000000000000000000000000000000000000000000000000000082169050919050565b600073ffffffffffffffffffffffffffffffffffffffff82169050919050565b6000819050919050565b600060ff82169050919050565b60006116408261161e565b9050919050565b82818337600083830152505050565b61165f82611714565b810181811067ffffffffffffffff8211171561167e5761167d6116e5565b5b80604052505050565b7f4e487b7100000000000000000000000000000000000000000000000000000000600052601160045260246000fd5b7f4e487b7100000000000000000000000000000000000000000000000000000000600052601260045260246000fd5b7f4e487b7100000000000000000000000000000000000000000000000000000000600052604160045260246000fd5b6000601f19601f8301169050919050565b60008160011c9050919050565b50565b7f446f6e277420686176652074686174204e465400000000000000000000000000600082015250565b7f4e6f7420656e6f75676820746f6b656e73000000000000000000000000000000600082015250565b7f4e6f74206d7920746f6b656e0000000000000000000000000000000000000000600082015250565b6117b9816115b4565b81146117c457600080fd5b50565b6117d0816115c6565b81146117db57600080fd5b50565b6117e7816115d2565b81146117f257600080fd5b50565b6117fe8161161e565b811461180957600080fd5b5056fea2646970667358221220a6f29942fe92e64c40f8670ae18c46f1a076bde7b3e04ecf53da3f094391e88664736f6c63430008040033",
  "linkReferences": {},
  "deployedLinkReferences": {}
}