{
  "_format": "hh-sol-artifact-1",
  "contractName": "LeonNFT",
  "sourceName": "contracts/LeonNFT.sol",
  "abi": [
    {
      "inputs": [],
      "stateMutability": "nonpayable",
      "type": "constructor"
    },
    {
      "anonymous": false,
      "inputs": [
        {
          "indexed": true,
          "internalType": "address",
          "name": "account",
          "type": "address"
        },
        {
          "indexed": true,
          "internalType": "address",
          "name": "operator",
          "type": "address"
        },
        {
          "indexed": false,
          "internalType": "bool",
          "name": "approved",
          "type": "bool"
        }
      ],
      "name": "ApprovalForAll",
      "type": "event"
    },
    {
      "anonymous": false,
      "inputs": [
        {
          "indexed": true,
          "internalType": "address",
          "name": "previousOwner",
          "type": "address"
        },
        {
          "indexed": true,
          "internalType": "address",
          "name": "newOwner",
          "type": "address"
        }
      ],
      "name": "OwnershipTransferred",
      "type": "event"
    },
    {
      "anonymous": false,
      "inputs": [
        {
          "indexed": true,
          "internalType": "address",
          "name": "operator",
          "type": "address"
        },
        {
          "indexed": true,
          "internalType": "address",
          "name": "from",
          "type": "address"
        },
        {
          "indexed": true,
          "internalType": "address",
          "name": "to",
          "type": "address"
        },
        {
          "indexed": false,
          "internalType": "uint256[]",
          "name": "ids",
          "type": "uint256[]"
        },
        {
          "indexed": false,
          "internalType": "uint256[]",
          "name": "values",
          "type": "uint256[]"
        }
      ],
      "name": "TransferBatch",
      "type": "event"
    },
    {
      "anonymous": false,
      "inputs": [
        {
          "indexed": true,
          "internalType": "address",
          "name": "operator",
          "type": "address"
        },
        {
          "indexed": true,
          "internalType": "address",
          "name": "from",
          "type": "address"
        },
        {
          "indexed": true,
          "internalType": "address",
          "name": "to",
          "type": "address"
        },
        {
          "indexed": false,
          "internalType": "uint256",
          "name": "id",
          "type": "uint256"
        },
        {
          "indexed": false,
          "internalType": "uint256",
          "name": "value",
          "type": "uint256"
        }
      ],
      "name": "TransferSingle",
      "type": "event"
    },
    {
      "anonymous": false,
      "inputs": [
        {
          "indexed": false,
          "internalType": "string",
          "name": "value",
          "type": "string"
        },
        {
          "indexed": true,
          "internalType": "uint256",
          "name": "id",
          "type": "uint256"
        }
      ],
      "name": "URI",
      "type": "event"
    },
    {
      "inputs": [],
      "name": "EXPLOSION_LEON",
      "outputs": [
        {
          "internalType": "uint256",
          "name": "",
          "type": "uint256"
        }
      ],
      "stateMutability": "view",
      "type": "function"
    },
    {
      "inputs": [],
      "name": "SOCIAL_MEDIA_LEON",
      "outputs": [
        {
          "internalType": "uint256",
          "name": "",
          "type": "uint256"
        }
      ],
      "stateMutability": "view",
      "type": "function"
    },
    {
      "inputs": [],
      "name": "WORKOUT_LEON",
      "outputs": [
        {
          "internalType": "uint256",
          "name": "",
          "type": "uint256"
        }
      ],
      "stateMutability": "view",
      "type": "function"
    },
    {
      "inputs": [
        {
          "internalType": "address",
          "name": "account",
          "type": "address"
        },
        {
          "internalType": "uint256",
          "name": "id",
          "type": "uint256"
        }
      ],
      "name": "balanceOf",
      "outputs": [
        {
          "internalType": "uint256",
          "name": "",
          "type": "uint256"
        }
      ],
      "stateMutability": "view",
      "type": "function"
    },
    {
      "inputs": [
        {
          "internalType": "address[]",
          "name": "accounts",
          "type": "address[]"
        },
        {
          "internalType": "uint256[]",
          "name": "ids",
          "type": "uint256[]"
        }
      ],
      "name": "balanceOfBatch",
      "outputs": [
        {
          "internalType": "uint256[]",
          "name": "",
          "type": "uint256[]"
        }
      ],
      "stateMutability": "view",
      "type": "function"
    },
    {
      "inputs": [
        {
          "internalType": "address",
          "name": "account",
          "type": "address"
        },
        {
          "internalType": "address",
          "name": "operator",
          "type": "address"
        }
      ],
      "name": "isApprovedForAll",
      "outputs": [
        {
          "internalType": "bool",
          "name": "",
          "type": "bool"
        }
      ],
      "stateMutability": "view",
      "type": "function"
    },
    {
      "inputs": [
        {
          "internalType": "address",
          "name": "_marketplace",
          "type": "address"
        }
      ],
      "name": "mintMarketplace",
      "outputs": [],
      "stateMutability": "nonpayable",
      "type": "function"
    },
    {
      "inputs": [],
      "name": "owner",
      "outputs": [
        {
          "internalType": "address",
          "name": "",
          "type": "address"
        }
      ],
      "stateMutability": "view",
      "type": "function"
    },
    {
      "inputs": [],
      "name": "renounceOwnership",
      "outputs": [],
      "stateMutability": "nonpayable",
      "type": "function"
    },
    {
      "inputs": [
        {
          "internalType": "address",
          "name": "from",
          "type": "address"
        },
        {
          "internalType": "address",
          "name": "to",
          "type": "address"
        },
        {
          "internalType": "uint256[]",
          "name": "ids",
          "type": "uint256[]"
        },
        {
          "internalType": "uint256[]",
          "name": "amounts",
          "type": "uint256[]"
        },
        {
          "internalType": "bytes",
          "name": "data",
          "type": "bytes"
        }
      ],
      "name": "safeBatchTransferFrom",
      "outputs": [],
      "stateMutability": "nonpayable",
      "type": "function"
    },
    {
      "inputs": [
        {
          "internalType": "address",
          "name": "from",
          "type": "address"
        },
        {
          "internalType": "address",
          "name": "to",
          "type": "address"
        },
        {
          "internalType": "uint256",
          "name": "id",
          "type": "uint256"
        },
        {
          "internalType": "uint256",
          "name": "amount",
          "type": "uint256"
        },
        {
          "internalType": "bytes",
          "name": "data",
          "type": "bytes"
        }
      ],
      "name": "safeTransferFrom",
      "outputs": [],
      "stateMutability": "nonpayable",
      "type": "function"
    },
    {
      "inputs": [
        {
          "internalType": "address",
          "name": "operator",
          "type": "address"
        },
        {
          "internalType": "bool",
          "name": "approved",
          "type": "bool"
        }
      ],
      "name": "setApprovalForAll",
      "outputs": [],
      "stateMutability": "nonpayable",
      "type": "function"
    },
    {
      "inputs": [
        {
          "internalType": "bytes4",
          "name": "interfaceId",
          "type": "bytes4"
        }
      ],
      "name": "supportsInterface",
      "outputs": [
        {
          "internalType": "bool",
          "name": "",
          "type": "bool"
        }
      ],
      "stateMutability": "view",
      "type": "function"
    },
    {
      "inputs": [
        {
          "internalType": "address",
          "name": "newOwner",
          "type": "address"
        }
      ],
      "name": "transferOwnership",
      "outputs": [],
      "stateMutability": "nonpayable",
      "type": "function"
    },
    {
      "inputs": [
        {
          "internalType": "uint256",
          "name": "",
          "type": "uint256"
        }
      ],
      "name": "uri",
      "outputs": [
        {
          "internalType": "string",
          "name": "",
          "type": "string"
        }
      ],
      "stateMutability": "view",
      "type": "function"
    }
  ],
  "bytecode": "0x60806040523480156200001157600080fd5b50604051806080016040528060558152602001620030aa605591396200003d816200006460201b60201c565b506200005e620000526200008060201b60201c565b6200008860201b60201c565b62000263565b80600290805190602001906200007c9291906200014e565b5050565b600033905090565b6000600360009054906101000a900473ffffffffffffffffffffffffffffffffffffffff16905081600360006101000a81548173ffffffffffffffffffffffffffffffffffffffff021916908373ffffffffffffffffffffffffffffffffffffffff1602179055508173ffffffffffffffffffffffffffffffffffffffff168173ffffffffffffffffffffffffffffffffffffffff167f8be0079c531659141344cd1fd0a4f28419497f9722a3daafe3b4186f6b6457e060405160405180910390a35050565b8280546200015c90620001fe565b90600052602060002090601f016020900481019282620001805760008555620001cc565b82601f106200019b57805160ff1916838001178555620001cc565b82800160010185558215620001cc579182015b82811115620001cb578251825591602001919060010190620001ae565b5b509050620001db9190620001df565b5090565b5b80821115620001fa576000816000905550600101620001e0565b5090565b600060028204905060018216806200021757607f821691505b602082108114156200022e576200022d62000234565b5b50919050565b7f4e487b7100000000000000000000000000000000000000000000000000000000600052602260045260246000fd5b612e3780620002736000396000f3fe608060405234801561001057600080fd5b50600436106100f45760003560e01c80636407761e11610097578063d5e905b711610066578063d5e905b714610271578063e985e9c51461028f578063f242432a146102bf578063f2fde38b146102db576100f4565b80636407761e1461020f578063715018a61461022d5780638da5cb5b14610237578063a22cb46514610255576100f4565b80632eb2c2d6116100d35780632eb2c2d6146101895780633788523c146101a55780634e1273f4146101c157806355246d75146101f1576100f4565b8062fdd58e146100f957806301ffc9a7146101295780630e89341c14610159575b600080fd5b610113600480360381019061010e9190611e29565b6102f7565b604051610120919061254a565b60405180910390f35b610143600480360381019061013e9190611ed1565b6103c0565b604051610150919061236d565b60405180910390f35b610173600480360381019061016e9190611f23565b6104a2565b6040516101809190612388565b60405180910390f35b6101a3600480360381019061019e9190611c9f565b610536565b005b6101bf60048036038101906101ba9190611c3a565b6105d7565b005b6101db60048036038101906101d69190611e65565b6106ac565b6040516101e89190612314565b60405180910390f35b6101f961085d565b604051610206919061254a565b60405180910390f35b610217610862565b604051610224919061254a565b60405180910390f35b610235610867565b005b61023f6108ef565b60405161024c9190612237565b60405180910390f35b61026f600480360381019061026a9190611ded565b610919565b005b61027961092f565b604051610286919061254a565b60405180910390f35b6102a960048036038101906102a49190611c63565b610934565b6040516102b6919061236d565b60405180910390f35b6102d960048036038101906102d49190611d5e565b6109c8565b005b6102f560048036038101906102f09190611c3a565b610a69565b005b60008073ffffffffffffffffffffffffffffffffffffffff168373ffffffffffffffffffffffffffffffffffffffff161415610368576040517f08c379a000000000000000000000000000000000000000000000000000000000815260040161035f906123ea565b60405180910390fd5b60008083815260200190815260200160002060008473ffffffffffffffffffffffffffffffffffffffff1673ffffffffffffffffffffffffffffffffffffffff16815260200190815260200160002054905092915050565b60007fd9b67a26000000000000000000000000000000000000000000000000000000007bffffffffffffffffffffffffffffffffffffffffffffffffffffffff1916827bffffffffffffffffffffffffffffffffffffffffffffffffffffffff1916148061048b57507f0e89341c000000000000000000000000000000000000000000000000000000007bffffffffffffffffffffffffffffffffffffffffffffffffffffffff1916827bffffffffffffffffffffffffffffffffffffffffffffffffffffffff1916145b8061049b575061049a82610b61565b5b9050919050565b6060600280546104b1906127b9565b80601f01602080910402602001604051908101604052809291908181526020018280546104dd906127b9565b801561052a5780601f106104ff5761010080835404028352916020019161052a565b820191906000526020600020905b81548152906001019060200180831161050d57829003601f168201915b50505050509050919050565b61053e610bcb565b73ffffffffffffffffffffffffffffffffffffffff168573ffffffffffffffffffffffffffffffffffffffff16148061058457506105838561057e610bcb565b610934565b5b6105c3576040517f08c379a00000000000000000000000000000000000000000000000000000000081526004016105ba9061246a565b60405180910390fd5b6105d08585858585610bd3565b5050505050565b6105df610bcb565b73ffffffffffffffffffffffffffffffffffffffff166105fd6108ef565b73ffffffffffffffffffffffffffffffffffffffff1614610653576040517f08c379a000000000000000000000000000000000000000000000000000000000815260040161064a906124aa565b60405180910390fd5b610670816000600160405180602001604052806000815250610f33565b61068c8160018060405180602001604052806000815250610f33565b6106a9816002600160405180602001604052806000815250610f33565b50565b606081518351146106f2576040517f08c379a00000000000000000000000000000000000000000000000000000000081526004016106e9906124ea565b60405180910390fd5b6000835167ffffffffffffffff811115610735577f4e487b7100000000000000000000000000000000000000000000000000000000600052604160045260246000fd5b6040519080825280602002602001820160405280156107635781602001602082028036833780820191505090505b50905060005b8451811015610852576107fc8582815181106107ae577f4e487b7100000000000000000000000000000000000000000000000000000000600052603260045260246000fd5b60200260200101518583815181106107ef577f4e487b7100000000000000000000000000000000000000000000000000000000600052603260045260246000fd5b60200260200101516102f7565b828281518110610835577f4e487b7100000000000000000000000000000000000000000000000000000000600052603260045260246000fd5b6020026020010181815250508061084b9061281c565b9050610769565b508091505092915050565b600281565b600181565b61086f610bcb565b73ffffffffffffffffffffffffffffffffffffffff1661088d6108ef565b73ffffffffffffffffffffffffffffffffffffffff16146108e3576040517f08c379a00000000000000000000000000000000000000000000000000000000081526004016108da906124aa565b60405180910390fd5b6108ed60006110c9565b565b6000600360009054906101000a900473ffffffffffffffffffffffffffffffffffffffff16905090565b61092b610924610bcb565b838361118f565b5050565b600081565b6000600160008473ffffffffffffffffffffffffffffffffffffffff1673ffffffffffffffffffffffffffffffffffffffff16815260200190815260200160002060008373ffffffffffffffffffffffffffffffffffffffff1673ffffffffffffffffffffffffffffffffffffffff16815260200190815260200160002060009054906101000a900460ff16905092915050565b6109d0610bcb565b73ffffffffffffffffffffffffffffffffffffffff168573ffffffffffffffffffffffffffffffffffffffff161480610a165750610a1585610a10610bcb565b610934565b5b610a55576040517f08c379a0000000000000000000000000000000000000000000000000000000008152600401610a4c9061242a565b60405180910390fd5b610a6285858585856112fc565b5050505050565b610a71610bcb565b73ffffffffffffffffffffffffffffffffffffffff16610a8f6108ef565b73ffffffffffffffffffffffffffffffffffffffff1614610ae5576040517f08c379a0000000000000000000000000000000000000000000000000000000008152600401610adc906124aa565b60405180910390fd5b600073ffffffffffffffffffffffffffffffffffffffff168173ffffffffffffffffffffffffffffffffffffffff161415610b55576040517f08c379a0000000000000000000000000000000000000000000000000000000008152600401610b4c9061240a565b60405180910390fd5b610b5e816110c9565b50565b60007f01ffc9a7000000000000000000000000000000000000000000000000000000007bffffffffffffffffffffffffffffffffffffffffffffffffffffffff1916827bffffffffffffffffffffffffffffffffffffffffffffffffffffffff1916149050919050565b600033905090565b8151835114610c17576040517f08c379a0000000000000000000000000000000000000000000000000000000008152600401610c0e9061250a565b60405180910390fd5b600073ffffffffffffffffffffffffffffffffffffffff168473ffffffffffffffffffffffffffffffffffffffff161415610c87576040517f08c379a0000000000000000000000000000000000000000000000000000000008152600401610c7e9061244a565b60405180910390fd5b6000610c91610bcb565b9050610ca181878787878761157e565b60005b8451811015610e9e576000858281518110610ce8577f4e487b7100000000000000000000000000000000000000000000000000000000600052603260045260246000fd5b602002602001015190506000858381518110610d2d577f4e487b7100000000000000000000000000000000000000000000000000000000600052603260045260246000fd5b60200260200101519050600080600084815260200190815260200160002060008b73ffffffffffffffffffffffffffffffffffffffff1673ffffffffffffffffffffffffffffffffffffffff16815260200190815260200160002054905081811015610dce576040517f08c379a0000000000000000000000000000000000000000000000000000000008152600401610dc59061248a565b60405180910390fd5b81810360008085815260200190815260200160002060008c73ffffffffffffffffffffffffffffffffffffffff1673ffffffffffffffffffffffffffffffffffffffff168152602001908152602001600020819055508160008085815260200190815260200160002060008b73ffffffffffffffffffffffffffffffffffffffff1673ffffffffffffffffffffffffffffffffffffffff1681526020019081526020016000206000828254610e8391906126ad565b9250508190555050505080610e979061281c565b9050610ca4565b508473ffffffffffffffffffffffffffffffffffffffff168673ffffffffffffffffffffffffffffffffffffffff168273ffffffffffffffffffffffffffffffffffffffff167f4a39dc06d4c0dbc64b70af90fd698a233a518aa5d07e595d983b8c0526c8f7fb8787604051610f15929190612336565b60405180910390a4610f2b818787878787611586565b505050505050565b600073ffffffffffffffffffffffffffffffffffffffff168473ffffffffffffffffffffffffffffffffffffffff161415610fa3576040517f08c379a0000000000000000000000000000000000000000000000000000000008152600401610f9a9061252a565b60405180910390fd5b6000610fad610bcb565b9050610fce81600087610fbf8861176d565b610fc88861176d565b8761157e565b8260008086815260200190815260200160002060008773ffffffffffffffffffffffffffffffffffffffff1673ffffffffffffffffffffffffffffffffffffffff168152602001908152602001600020600082825461102d91906126ad565b925050819055508473ffffffffffffffffffffffffffffffffffffffff16600073ffffffffffffffffffffffffffffffffffffffff168273ffffffffffffffffffffffffffffffffffffffff167fc3d58168c5ae7397731d063d5bbf3d657854427343f4c083240f7aacaa2d0f6287876040516110ab929190612565565b60405180910390a46110c281600087878787611833565b5050505050565b6000600360009054906101000a900473ffffffffffffffffffffffffffffffffffffffff16905081600360006101000a81548173ffffffffffffffffffffffffffffffffffffffff021916908373ffffffffffffffffffffffffffffffffffffffff1602179055508173ffffffffffffffffffffffffffffffffffffffff168173ffffffffffffffffffffffffffffffffffffffff167f8be0079c531659141344cd1fd0a4f28419497f9722a3daafe3b4186f6b6457e060405160405180910390a35050565b8173ffffffffffffffffffffffffffffffffffffffff168373ffffffffffffffffffffffffffffffffffffffff1614156111fe576040517f08c379a00000000000000000000000000000000000000000000000000000000081526004016111f5906124ca565b60405180910390fd5b80600160008573ffffffffffffffffffffffffffffffffffffffff1673ffffffffffffffffffffffffffffffffffffffff16815260200190815260200160002060008473ffffffffffffffffffffffffffffffffffffffff1673ffffffffffffffffffffffffffffffffffffffff16815260200190815260200160002060006101000a81548160ff0219169083151502179055508173ffffffffffffffffffffffffffffffffffffffff168373ffffffffffffffffffffffffffffffffffffffff167f17307eab39ab6107e8899845ad3d59bd9653f200f220920489ca2b5937696c31836040516112ef919061236d565b60405180910390a3505050565b600073ffffffffffffffffffffffffffffffffffffffff168473ffffffffffffffffffffffffffffffffffffffff16141561136c576040517f08c379a00000000000000000000000000000000000000000000000000000000081526004016113639061244a565b60405180910390fd5b6000611376610bcb565b90506113968187876113878861176d565b6113908861176d565b8761157e565b600080600086815260200190815260200160002060008873ffffffffffffffffffffffffffffffffffffffff1673ffffffffffffffffffffffffffffffffffffffff1681526020019081526020016000205490508381101561142d576040517f08c379a00000000000000000000000000000000000000000000000000000000081526004016114249061248a565b60405180910390fd5b83810360008087815260200190815260200160002060008973ffffffffffffffffffffffffffffffffffffffff1673ffffffffffffffffffffffffffffffffffffffff168152602001908152602001600020819055508360008087815260200190815260200160002060008873ffffffffffffffffffffffffffffffffffffffff1673ffffffffffffffffffffffffffffffffffffffff16815260200190815260200160002060008282546114e291906126ad565b925050819055508573ffffffffffffffffffffffffffffffffffffffff168773ffffffffffffffffffffffffffffffffffffffff168373ffffffffffffffffffffffffffffffffffffffff167fc3d58168c5ae7397731d063d5bbf3d657854427343f4c083240f7aacaa2d0f62888860405161155f929190612565565b60405180910390a4611575828888888888611833565b50505050505050565b505050505050565b6115a58473ffffffffffffffffffffffffffffffffffffffff16611a1a565b15611765578373ffffffffffffffffffffffffffffffffffffffff1663bc197c8187878686866040518663ffffffff1660e01b81526004016115eb959493929190612252565b602060405180830381600087803b15801561160557600080fd5b505af192505050801561163657506040513d601f19601f820116820180604052508101906116339190611efa565b60015b6116dc576116426128f2565b806308c379a0141561169f5750611657612d0f565b8061166257506116a1565b806040517f08c379a00000000000000000000000000000000000000000000000000000000081526004016116969190612388565b60405180910390fd5b505b6040517f08c379a00000000000000000000000000000000000000000000000000000000081526004016116d3906123aa565b60405180910390fd5b63bc197c8160e01b7bffffffffffffffffffffffffffffffffffffffffffffffffffffffff1916817bffffffffffffffffffffffffffffffffffffffffffffffffffffffff191614611763576040517f08c379a000000000000000000000000000000000000000000000000000000000815260040161175a906123ca565b60405180910390fd5b505b505050505050565b60606000600167ffffffffffffffff8111156117b2577f4e487b7100000000000000000000000000000000000000000000000000000000600052604160045260246000fd5b6040519080825280602002602001820160405280156117e05781602001602082028036833780820191505090505b509050828160008151811061181e577f4e487b7100000000000000000000000000000000000000000000000000000000600052603260045260246000fd5b60200260200101818152505080915050919050565b6118528473ffffffffffffffffffffffffffffffffffffffff16611a1a565b15611a12578373ffffffffffffffffffffffffffffffffffffffff1663f23a6e6187878686866040518663ffffffff1660e01b81526004016118989594939291906122ba565b602060405180830381600087803b1580156118b257600080fd5b505af19250505080156118e357506040513d601f19601f820116820180604052508101906118e09190611efa565b60015b611989576118ef6128f2565b806308c379a0141561194c5750611904612d0f565b8061190f575061194e565b806040517f08c379a00000000000000000000000000000000000000000000000000000000081526004016119439190612388565b60405180910390fd5b505b6040517f08c379a0000000000000000000000000000000000000000000000000000000008152600401611980906123aa565b60405180910390fd5b63f23a6e6160e01b7bffffffffffffffffffffffffffffffffffffffffffffffffffffffff1916817bffffffffffffffffffffffffffffffffffffffffffffffffffffffff191614611a10576040517f08c379a0000000000000000000000000000000000000000000000000000000008152600401611a07906123ca565b60405180910390fd5b505b505050505050565b6000808273ffffffffffffffffffffffffffffffffffffffff163b119050919050565b6000611a50611a4b846125b3565b61258e565b90508083825260208201905082856020860282011115611a6f57600080fd5b60005b85811015611a9f5781611a858882611b53565b845260208401935060208301925050600181019050611a72565b5050509392505050565b6000611abc611ab7846125df565b61258e565b90508083825260208201905082856020860282011115611adb57600080fd5b60005b85811015611b0b5781611af18882611c25565b845260208401935060208301925050600181019050611ade565b5050509392505050565b6000611b28611b238461260b565b61258e565b905082815260208101848484011115611b4057600080fd5b611b4b848285612777565b509392505050565b600081359050611b6281612da5565b92915050565b600082601f830112611b7957600080fd5b8135611b89848260208601611a3d565b91505092915050565b600082601f830112611ba357600080fd5b8135611bb3848260208601611aa9565b91505092915050565b600081359050611bcb81612dbc565b92915050565b600081359050611be081612dd3565b92915050565b600081519050611bf581612dd3565b92915050565b600082601f830112611c0c57600080fd5b8135611c1c848260208601611b15565b91505092915050565b600081359050611c3481612dea565b92915050565b600060208284031215611c4c57600080fd5b6000611c5a84828501611b53565b91505092915050565b60008060408385031215611c7657600080fd5b6000611c8485828601611b53565b9250506020611c9585828601611b53565b9150509250929050565b600080600080600060a08688031215611cb757600080fd5b6000611cc588828901611b53565b9550506020611cd688828901611b53565b945050604086013567ffffffffffffffff811115611cf357600080fd5b611cff88828901611b92565b935050606086013567ffffffffffffffff811115611d1c57600080fd5b611d2888828901611b92565b925050608086013567ffffffffffffffff811115611d4557600080fd5b611d5188828901611bfb565b9150509295509295909350565b600080600080600060a08688031215611d7657600080fd5b6000611d8488828901611b53565b9550506020611d9588828901611b53565b9450506040611da688828901611c25565b9350506060611db788828901611c25565b925050608086013567ffffffffffffffff811115611dd457600080fd5b611de088828901611bfb565b9150509295509295909350565b60008060408385031215611e0057600080fd5b6000611e0e85828601611b53565b9250506020611e1f85828601611bbc565b9150509250929050565b60008060408385031215611e3c57600080fd5b6000611e4a85828601611b53565b9250506020611e5b85828601611c25565b9150509250929050565b60008060408385031215611e7857600080fd5b600083013567ffffffffffffffff811115611e9257600080fd5b611e9e85828601611b68565b925050602083013567ffffffffffffffff811115611ebb57600080fd5b611ec785828601611b92565b9150509250929050565b600060208284031215611ee357600080fd5b6000611ef184828501611bd1565b91505092915050565b600060208284031215611f0c57600080fd5b6000611f1a84828501611be6565b91505092915050565b600060208284031215611f3557600080fd5b6000611f4384828501611c25565b91505092915050565b6000611f588383612219565b60208301905092915050565b611f6d81612703565b82525050565b6000611f7e8261264c565b611f88818561267a565b9350611f938361263c565b8060005b83811015611fc4578151611fab8882611f4c565b9750611fb68361266d565b925050600181019050611f97565b5085935050505092915050565b611fda81612715565b82525050565b6000611feb82612657565b611ff5818561268b565b9350612005818560208601612786565b61200e81612914565b840191505092915050565b600061202482612662565b61202e818561269c565b935061203e818560208601612786565b61204781612914565b840191505092915050565b600061205f60348361269c565b915061206a82612932565b604082019050919050565b600061208260288361269c565b915061208d82612981565b604082019050919050565b60006120a5602b8361269c565b91506120b0826129d0565b604082019050919050565b60006120c860268361269c565b91506120d382612a1f565b604082019050919050565b60006120eb60298361269c565b91506120f682612a6e565b604082019050919050565b600061210e60258361269c565b915061211982612abd565b604082019050919050565b600061213160328361269c565b915061213c82612b0c565b604082019050919050565b6000612154602a8361269c565b915061215f82612b5b565b604082019050919050565b600061217760208361269c565b915061218282612baa565b602082019050919050565b600061219a60298361269c565b91506121a582612bd3565b604082019050919050565b60006121bd60298361269c565b91506121c882612c22565b604082019050919050565b60006121e060288361269c565b91506121eb82612c71565b604082019050919050565b600061220360218361269c565b915061220e82612cc0565b604082019050919050565b6122228161276d565b82525050565b6122318161276d565b82525050565b600060208201905061224c6000830184611f64565b92915050565b600060a0820190506122676000830188611f64565b6122746020830187611f64565b81810360408301526122868186611f73565b9050818103606083015261229a8185611f73565b905081810360808301526122ae8184611fe0565b90509695505050505050565b600060a0820190506122cf6000830188611f64565b6122dc6020830187611f64565b6122e96040830186612228565b6122f66060830185612228565b81810360808301526123088184611fe0565b90509695505050505050565b6000602082019050818103600083015261232e8184611f73565b905092915050565b600060408201905081810360008301526123508185611f73565b905081810360208301526123648184611f73565b90509392505050565b60006020820190506123826000830184611fd1565b92915050565b600060208201905081810360008301526123a28184612019565b905092915050565b600060208201905081810360008301526123c381612052565b9050919050565b600060208201905081810360008301526123e381612075565b9050919050565b6000602082019050818103600083015261240381612098565b9050919050565b60006020820190508181036000830152612423816120bb565b9050919050565b60006020820190508181036000830152612443816120de565b9050919050565b6000602082019050818103600083015261246381612101565b9050919050565b6000602082019050818103600083015261248381612124565b9050919050565b600060208201905081810360008301526124a381612147565b9050919050565b600060208201905081810360008301526124c38161216a565b9050919050565b600060208201905081810360008301526124e38161218d565b9050919050565b60006020820190508181036000830152612503816121b0565b9050919050565b60006020820190508181036000830152612523816121d3565b9050919050565b60006020820190508181036000830152612543816121f6565b9050919050565b600060208201905061255f6000830184612228565b92915050565b600060408201905061257a6000830185612228565b6125876020830184612228565b9392505050565b60006125986125a9565b90506125a482826127eb565b919050565b6000604051905090565b600067ffffffffffffffff8211156125ce576125cd6128c3565b5b602082029050602081019050919050565b600067ffffffffffffffff8211156125fa576125f96128c3565b5b602082029050602081019050919050565b600067ffffffffffffffff821115612626576126256128c3565b5b61262f82612914565b9050602081019050919050565b6000819050602082019050919050565b600081519050919050565b600081519050919050565b600081519050919050565b6000602082019050919050565b600082825260208201905092915050565b600082825260208201905092915050565b600082825260208201905092915050565b60006126b88261276d565b91506126c38361276d565b9250827fffffffffffffffffffffffffffffffffffffffffffffffffffffffffffffffff038211156126f8576126f7612865565b5b828201905092915050565b600061270e8261274d565b9050919050565b60008115159050919050565b60007fffffffff0000000000000000000000000000000000000000000000000000000082169050919050565b600073ffffffffffffffffffffffffffffffffffffffff82169050919050565b6000819050919050565b82818337600083830152505050565b60005b838110156127a4578082015181840152602081019050612789565b838111156127b3576000848401525b50505050565b600060028204905060018216806127d157607f821691505b602082108114156127e5576127e4612894565b5b50919050565b6127f482612914565b810181811067ffffffffffffffff82111715612813576128126128c3565b5b80604052505050565b60006128278261276d565b91507fffffffffffffffffffffffffffffffffffffffffffffffffffffffffffffffff82141561285a57612859612865565b5b600182019050919050565b7f4e487b7100000000000000000000000000000000000000000000000000000000600052601160045260246000fd5b7f4e487b7100000000000000000000000000000000000000000000000000000000600052602260045260246000fd5b7f4e487b7100000000000000000000000000000000000000000000000000000000600052604160045260246000fd5b600060033d11156129115760046000803e61290e600051612925565b90505b90565b6000601f19601f8301169050919050565b60008160e01c9050919050565b7f455243313135353a207472616e7366657220746f206e6f6e204552433131353560008201527f526563656976657220696d706c656d656e746572000000000000000000000000602082015250565b7f455243313135353a204552433131353552656365697665722072656a6563746560008201527f6420746f6b656e73000000000000000000000000000000000000000000000000602082015250565b7f455243313135353a2062616c616e636520717565727920666f7220746865207a60008201527f65726f2061646472657373000000000000000000000000000000000000000000602082015250565b7f4f776e61626c653a206e6577206f776e657220697320746865207a65726f206160008201527f6464726573730000000000000000000000000000000000000000000000000000602082015250565b7f455243313135353a2063616c6c6572206973206e6f74206f776e6572206e6f7260008201527f20617070726f7665640000000000000000000000000000000000000000000000602082015250565b7f455243313135353a207472616e7366657220746f20746865207a65726f20616460008201527f6472657373000000000000000000000000000000000000000000000000000000602082015250565b7f455243313135353a207472616e736665722063616c6c6572206973206e6f742060008201527f6f776e6572206e6f7220617070726f7665640000000000000000000000000000602082015250565b7f455243313135353a20696e73756666696369656e742062616c616e636520666f60008201527f72207472616e7366657200000000000000000000000000000000000000000000602082015250565b7f4f776e61626c653a2063616c6c6572206973206e6f7420746865206f776e6572600082015250565b7f455243313135353a2073657474696e6720617070726f76616c2073746174757360008201527f20666f722073656c660000000000000000000000000000000000000000000000602082015250565b7f455243313135353a206163636f756e747320616e6420696473206c656e67746860008201527f206d69736d617463680000000000000000000000000000000000000000000000602082015250565b7f455243313135353a2069647320616e6420616d6f756e7473206c656e6774682060008201527f6d69736d61746368000000000000000000000000000000000000000000000000602082015250565b7f455243313135353a206d696e7420746f20746865207a65726f2061646472657360008201527f7300000000000000000000000000000000000000000000000000000000000000602082015250565b600060443d1015612d1f57612da2565b612d276125a9565b60043d036004823e80513d602482011167ffffffffffffffff82111715612d4f575050612da2565b808201805167ffffffffffffffff811115612d6d5750505050612da2565b80602083010160043d038501811115612d8a575050505050612da2565b612d99826020018501866127eb565b82955050505050505b90565b612dae81612703565b8114612db957600080fd5b50565b612dc581612715565b8114612dd057600080fd5b50565b612ddc81612721565b8114612de757600080fd5b50565b612df38161276d565b8114612dfe57600080fd5b5056fea264697066735822122075310fed8a1aebcc62c71d71372572ce25ff258f1f7d371f0c908a8da118305d64736f6c6343000804003368747470733a2f2f7261772e67697468756275736572636f6e74656e742e636f6d2f6d616369656b67727a7962656b2f6c656f2d6d61726b6574706c6163652f6d61696e2f746f6b656e732f7b69647d2e6a736f6e",
  "linkReferences": {},
  "deployedLinkReferences": {}
}